:0A00000095C0FECFFDCFFCCFFBCF73
:10000A00FACFF9CFF8CFF7CFF6CFF5CFDEC0F3CFDF
:10001A00F2CFF1CFF0CFEFCFEECFEDCF000000005F
:10002A0044616E67206E6861702E2E2E000D4D6F32
:10003A0069206E686170206E6F692064756E672032
:10004A006869656E207468693A0D546F6920646145
:10005A00203332206B79207475202D20456E74650B
:10006A0072206465206869656E207468690D54653C
:10007A0078743E20000D53656E6420746F204C43E3
:10008A00442E2E2E000D4E68616E207068696D2018
:10009A0057206465206E686170206D6F692E2E2E60
:1000AA000D00544553542055534152542041565241
:1000BA00210053616E6754616F436C75622E4E6501
:1000CA0074004E68616E207068696D2057206465FF
:1000DA00206E686170206E6F692064756E672120DA
:1000EA000D0080C00D0060012A0048006D01370034
:1000FA001000B5017F001D00C5018F000800E20154
:10010A0077001000EA01AC001000FA01BC002000E0
:10011A000A02CC0003000500260002004A02EC0095
:10012A000000F894EE27ECBBF1E0FBBFEBBFE5BFA4
:10013A00F8E1F1BDE1BD8DE0A2E0BB27ED938A9520
:10014A00E9F780E094E0A0E6ED930197E9F7EEEE97
:10015A00F0E085919591009761F0A591B591059090
:10016A001590BF01F00105900D920197E1F7FB018F
:10017A00F0CFEFE5EDBFE4E0EEBFC0E6D1E08BC023
:10018A005D9BFECFE881ECB93AC174D1EA81FB816B
:10019A0042D137D11E2F00E0011750F4AA81BB814A
:1001AA00EE27A00FBE1FEC91EA93EADF0F5FF4CFB0
:1001BA0064D1249608951A9310E0103220F4E12FA6
:1001CA002DD11F5FFACF199108950A921A92FA92C5
:1001DA006A937A938A939A93AA93BA93EA93FA932D
:1001EA00EFB7EA934CB0E7E5E41519F0E7E7E41551
:1001FA0019F4E0E0E71509F00BC016D1DCDFE0E600
:10020A00F1E017D1EDE6F1E016D1E1E07E2E35C03E
:10021A00EDE0E41519F4E1E0E71509F00DC0E5EBAE
:10022A00F1E009D101D1EAE2F2E003D1E5ECF1E033
:10023A0002D17724552421C0E8E0E41519F4E1E05D
:10024A00E71509F00BC0E0E0E51510F45A9403C075
:10025A00E2EEF1E0F0D0E52DE1D00FC0E1E0E715E4
:10026A0061F4EFE1E41510F45E1608F006C0E52D1E
:10027A005394F0E0E65DFD4F4082E991EFBFF991BA
:10028A00E991B991A9919991899179916991F99095
:10029A00199009901895E8E9EAB9E6E8E0BDE7E4BB
:1002AA00E9B9E0E1EA9384D0EAEEF1E0C2D0E4EF02
:1002BA00F1E0C3D0E0E0EA93E1E0EA933BD0EAEF71
:1002CA00F1E0B7D0E8EEF3E0B8D0EAE0F2E0B3D07C
:1002DA007894FFCFFFCFE881E07111F0949A01C0C2
:1002EA009498E881E07211F0959A01C09598E88196
:1002FA00E07411F0969A01C09698E881E07811F0BE
:10030A00979A01C0979887E08A95F1F7AA9A82E1AD
:10031A008A95F1F7AA9882E18A95F1F770C0E88187
:10032A008ED0E881E295E883E88189D088EB8A95C6
:10033A00F1F765C0E881F0E0E65BFD4FE081A98155
:10034A00EA0F7FD06980988022960895E2E079D0FA
:10035A00E3E0F0E072D0ECE074D0E1E072D0E3E0E8
:10036A00F0E06BD0E0E09E2E6E2E0895A881AA30B0
:10037A0011F0681440F0E0E0EA9393949A92DADF7D
:10038A00A881AA30E1F16394A89AE8815AD0A89882
:10039A0036C01A93A981BA81ED91A983BA831E2F17
:1003AA00E03019F01A93E2DFF5CF18812396089509
:1003BA008C9A8D9A8E9A8F9AA29AA09AA19AAA98A2
:1003CA00A898A9988880E881E058E0934C02E881CF
:1003DA00E054E0934D02E4E1F0E02FD0E0E32FD0C7
:1003EA0032D031D036D0E0E22AD033D0E8E229D078
:1003FA00E4E027D0E5E825D0E6E023D0A7DF219680
:10040A000895A991B991EE27FF276D91662311F0FE
:10041A003196FBCF0895FA93EA930895F0E0E65DEA
:10042A00FD4FA0E0A083089591DFE0E0EA93EA930C
:10043A0081CFF1DFAECFEFDFA8CEEDDF0FC0EA93B9
:10044A004ACFEA936CCF84E191E00197F1F7E0E3B8
:10045A00F6CF84E191E00197F1F70895E991F991D6
:10046A00309639F08DEC9AE00197F1F7A89531971B
:10047A00C9F708951A930A9308951981088108956E
:00000001FF
