:020000040802f0
:100000000000022039020208000000000000000089
:1000100000000000000000000000000000000000e0
:1000200000000000000000000000000000000000d0
:1000300000000000000000000000000000000000c0
:1000400000000000000000000000000000000000b0
:1000500000000000000000000000000000000000a0
:100060000000000000000000000000000000000090
:100070000000000000000000000000000000000080
:100080000000000000000000000000000000000070
:100090000000000000000000000000000000000060
:1000a0000000000000000000000000000000000050
:1000b0000000000000000000000000000000000040
:1000c0000000000000000000000000000000000030
:1000d0000000000000000000000000000000000020
:1000e0000000000000000000000000000000000010
:1000f0000000000000000000000000000000000000
:1001000000000000000000000000000000000000ef
:1001100000000000000000000000000000000000df
:1001200000000000000000000000000000000000cf
:1001300000000000000000000000000000000000bf
:1001400000000000000000000000000000000000af
:10015000000000000000000000000000000000009f
:10016000000000000000000000000000000000008f
:10017000000000000000000000000000000000007f
:10018000000000000000020834a8050800001f0c51
:10019000060004010402cf0000000000e04f030845
:1001a0005453030844530308545203085850030897
:1001b00070b50025054e064ca41ba408ac4200d126
:1001c00070bd56f8043b98470135f7e7f4a50508dc
:1001d000f8a50508014b1860704700bf34440120a2
:1001e0000048704798a2050808b5024b1b685b6a77
:1001f000019308bda001060809480a4908b58842cc
:1002000005d0094a824202d0121a0ef0c2fb0748fa
:10021000074a0021121a0ef0cafb064808bd00bfab
:100220000044012008a605080446012004460120d8
:10023000fd46012000440120fff7deff014b1b6853
:10024000184700bf0400060808b5024b1b68db68ae
:10025000019308bd9c010608407803280dd8431e71
:10026000022b14d8dfe803f014141400052b09d86e
:10027000dfe803f00e0e0e0e0e0ea0f14003dab210
:10028000052af3d910f0800f08bf802070470020a6
:10029000704702680146107800f00f000c2802d861
:1002a00001320a6070470d2806d1531c0b60537849
:1002c00003325bba9bb203f20d10eae700207047dd
:1002d000f0b51e4b8bb002ad04460f469c462a4635
:1002e00003f1180e2e4618685968083303c6734583
:1002f0003546f7d118681b7930603371144bdcf840
:100300001d001b7900908df804301346224608ae7c
:100310001d4603cdb542106051602b4602f1080224
:10032000f6d1286807f10b0110602b7904f11d004c
:10033000137180220ef02dfb00989df80430c4f854
:100340009d0084f8a1300bb0f0bd00bf5f1803081a
:100350007c18030838b514463ab10c2ad3b206d833
:1003600000f8013b0ef015fb0134204638bd0d2589
:100370000d3b0570437002300ef00bfb0234f4e7c6
:1003800023289abf024b33f910006ff0ef0070473b
:10039000a0180308704710b404686468a44610bc31
:1003a000604790f88406003818bf012070474ff06e
:1003b000ff30704781817047c18170470b88032be4
:1003c00081bf83894b80c3898b807047072933d8cd
:1003d000dfe801f004111a2126292c2fd0f89416f9
:1003e0005b68012901d1022b03d0c0f88c26c0f82c
:1003f000943600207047003a18bf0122012380f88c
:10040000b92080f8b830f4e7d0f8803643f008031c
:10041000c0f88036ede7d0f8803643f01003f7e7f8
:10042000a0f8bc26e5e7c0f8b426e2e7c0f8b82695
:10043000dfe7c0f8c026dce71b20704710b5a1f14c
:100440000804022c21d81c68032c02d80420186050
:1004500010bd09290ed00a2914d0d0f8c01640f2d8
:10046000ae304c1e84420dd8503911600422002059
:100470001a60ede7d0f8c016481eb0f5597f01d8d4
:100480000639f2e74ff45871efe71b20e0e710b4ac
:100490000468a468a44610bc604790f860067047e2
:1004a00010b5d0f85836d0f85c46d0f8500601b1f7
:1004b0000b600ab1c2e9003410bd0368db6818475d
:1004c00003681b69184740f2ae339a429fbf06305b
:1004d0004ff0ff32c1e90003002096bfca6004203c
:1004e00088607047002070470020704770470022e6
:1004f000c0e90022c0e90222c0e9042282618283ad
:100500007047123310b5d1e90140241a9c4221bf33
:100510000b6848601230c01825bfc2e900040020f3
:100520000420906010bd10b592b14368002b0fdd20
:1005300003682bb15c1c046011b111f8014b1c70f5
:100540004368013a013b4360836801338360ebe712
:1005500010bd2de9f04106460f46144622f0030572
:100560004fea92080d44af420cd16ff0030202fb38
:1005700008442c44a5420bd0d6e90030984705f832
:10058000010bf7e7d6e90030984747f8040beae794
:100590000020bde8f081002070472de9f843d0f835
:1005a000ac3881460f46154698470024064644f667
:1005b0002068ac4212dad9f8b4380022291b381965
:1005c0009847031e0ddb01d01c44f2e7d9f8ac3884
:1005d0009847801b4045ecd94ff0ff342046bde8da
:1005e000f8831c46fae72de9f843d0f8ac38814689
:1005f0000f46154698470024064644f62068ac424c
:1006000012dad9f8b8380022291b38199847031e86
:100610000ddb01d01c44f2e7d9f8ac389847801bb9
:100620004045ecd94ff0ff342046bde8f8831c4626
:10063000fae74ff0b10cf0b50b68d0f8b4468789f3
:10064000c689b0f8bc56d0f8b80683f804c04ff09d
:10065000680c83f805c04ff0ff0c1f7283f806c0ca
:100660009e724fea172c1a73370a160a0622502177
:100670009a732a0a5a74032219700221da74c0226a
:10068000597000211a75220e5a75220c9a75220a89
:10069000da75c0f307229970d97083f807c05f72ca
:1006a000de725973d97319749d741c765a769876d4
:1006b0001b20f0bd70b50b68056804466b4013ea5b
:1006c000020041d1d30605d5ee0603d5268b0b8b50
:1006d0009e4238d1500705d56b0703d5e068cb683b
:1006e000984231d1960705d5a80703d5a0688b6835
:1006f000984229d1d30705d5ee0703d560684b682a
:10070000984221d1100705d52b0703d520690b6925
:10071000984219d1960605d5a80603d5608b4b8b58
:10072000984211d1530605d56e0603d560694b6911
:10073000984209d1100609d52a0607d5a08b8b8bc4
:10074000c31a5842584170bd0020fce70120fae767
:1007500003681b68184738b51546d0e90223934251
:10076000044607d2d21a4068aa4228bf2a46184433
:100770000ef00ff9e26801202a44e26038bd7fb52f
:10078000044600f504760d460020236c8bb10d2144
:10079000009004f14900a847402101902046a84755
:1007a0000121029004f14800a847102103906846f7
:1007b000a8475834b442e8d104b070bd10b46024e6
:1007c0000b681c7000245c709c70dc704b68ca6005
:1007d000032b84bf04238b60406810bc03685b68f4
:1007e000184770b51c4605460e4611461a460ef0cf
:1007f000d0f8321b28190021bde870400ef0d7b8a0
:100800000a460b8884300821fff7ebbf2de9f0473b
:100810000f6c05468a46144657b9c0e90077c0e90f
:100820000277c0e90477876187832846bde8f087af
:1008300012f0100616bf1026b146b1f8bc9612f0a1
:10084000010807d0002301211a460846b847804610
:1008500046f0010614f0020709d00023daf84070d0
:100860001a4601211846b847074646f0020614f01a
:10087000040007d0daf864100af58660fff77ffffe
:1008800046f0040614f008011cbf46f00806daf82a
:10089000801614f020031cbf4ff4707346f020063e
:1008a00014f040021cbf46f04006daf8b42614f0fb
:1008b00080041cbfbaf8b84646f08006c5e9006857
:1008c000c5e90270c5e90412a5f818906b83ac83e2
:1008d000abe710b40446084611466268d4681a466d
:1008e000234610bc184710b40446084611466268f7
:1008f00014691a46234610bc184710b4044608462b
:100900001146626854691a46234610bc18470346cc
:100910005b6808469b691146184743681b6a18477d
:100920000346084621b1db680b44013bb3fbf1f001
:100930007047006800ba704770b50a460446418c9b
:100940000830fff7edff012683b2104698420bd224
:10095000656ac108695c00f0070206fa02f21142fa
:1009600004d0013080b2f1e74ff6ff7070bd10b4d3
:1009700001291346c06807d102685968146803f159
:100980000802234610bc18476ff0770010bc704770
:1009900038b5144619b904220846226038bd1368d8
:1009a000032b07d903685b6898470028f6d1042316
:1009b0002360f3e76ff0bd00f0e7836900200b6070
:1009c000704710b460240b681c7000245c709c702d
:1009d000dc704b68ca60032b84bf04238b60036800
:1009e00010bc586803685b68184770b40c689df8c1
:1009f0000c506126657000252670a570e570227187
:100a00004a68cb60042a88bf052270bc88bf8a6010
:100a10000368586803685b681847000008b5024b14
:100a20001b681b6e019308bdb801060808b5024b90
:100a30001b689b6e019308bdb801060808b5024b00
:100a40001b685b68019308bd9c010608f8b50e465b
:100a5000144622f0030597080d44ae420bd16ff007
:100a6000030202fb07442c44a54209d0fff7e6ff2e
:100a700005f8010bf8e7fff7e1ff46f8040bece798
:100a80000020f8bd2de9f74f4ff001081746044646
:100a90001d460e464246c0f8808600f5d66100200d
:100aa000fff7d4ffd5e901a9bb6879684ff4197243
:100ab00004f53b60d5f820b001930df06aff019b6f
:100ac0004ff49472194604f688200df062ff3368e3
:100ad0002a46c4f8143e73683821c4f8183eb36837
:100ae000c4f870bfc4f81c3e194bc4f878afc4f802
:100af000743f04f68473c4f8803f0023c4f87c9fdd
:100b0000c4f88430c4f8883004f14c0630462b8891
:100b1000fff767fe0c9b3c211b680c9a04f1100048
:100b2000fff75ffe04f1c003c4f8b43043f6982326
:100b3000c4f88c3642f21073c4f890360223c4f81d
:100b4000c46084f88486c4f8943603b0bde8f08f9e
:100b50009503020808b5024b1b685b69019308bd49
:100b60009c0106084ff40052024b08b11a837047eb
:100b70005a83704700000240014b1860704700bf65
:100b800078460120014b1870704700bf2e440120a9
:100b900010b5054b1c78054b4443db680020984793
:100ba0006043000c10bd00bf2e4401200044012012
:100bb00038b50546c0f307400c46fff7e9ff208033
:100bc000c5f30720fff7e4ff6080e8b2fff7e0ff1e
:100bd000a08038bd014b1860704700bf7c460120e3
:100be00010b9024b18687047014bfbe778460120ab
:100bf0007c460120014b1878704700bf2e4401202d
:100c0000024b1860024b1960704700bf80460120fc
:100c10008446012010b5054b0446db680020984748
:100c20002402b4fbf0f0c0b210bd00bf00440120ac
:100c3000f7b5104b104f5d68828800234188044649
:100c40000088a8473b689bb12088fff7e3ff054673
:100c50006088fff7dfff0646a088fff7dbff002272
:100c6000034606480092294632463c680068a04781
:100c700003b0f0bd004401208046012084460120dd
:100c800007b56946fff794ff6846fff7d1ff03b049
:100c90005df804fb13b518b1e72807d002b010bd0a
:100ca000104b5b6902b0bde8104018470e4b1b7833
:100cb000a3b10e4b1c680b4b00219b6868469847fc
:100cc000bdf80220bdf800301343bdf804201343e3
:100cd0009bb22bb10020fff7d3ffdfe7044be9e71e
:100ce0002046f8e700440120044601207c4601200c
:100cf0007846012013b51a4a1a4b147854bb0121c7
:100d000019701b78e7281c44e4b2147020d1164bec
:100d10001b781bb3154b18686946fff749ff632220
:100d2000bdf8003068466343b3fbf2f3adf8003022
:100d3000bdf802306343b3fbf2f3adf80230bdf807
:100d400004305c43b4fbf2f4adf80440fff770ffed
:100d500002b010bd632cd4d1ff21d1e7044bdae7f8
:100d60002d4401202c440120044601207c46012012
:100d7000784601202de9f341dff834800446002154
:100d80006846d8f8083098476e46671e023400203f
:100d9000d8f80c3036f8025b98472d02b5fbf0f519
:100da00007f8015fa742f2d102b0bde8f08100bfb1
:100db00000440120024b1878003818bf012070470a
:100dc0000446012084b030b503ac84e80f00064c23
:100dd00003ad0fcd0fc495e8030084e80300bde820
:100de000304004b0704700bf0044012008b5084bf4
:100df0001b7853b1074b1868fff742ff6322064b7d
:100e00001a70ff22054b1a7008bd054bf3e700bfaf
:100e1000044601207c4601202d4401202c44012061
:100e20007846012010b1e72805d070474ff40052f2
:100e3000024b1a837047fff7d9bf00bf0000024082
:100e400008b50020fff71cff0022034b1a70012297
:100e5000024b1a7008bd00bf2d4401202c44012014
:100e600010b1e72805d070474ff40052024b5a8367
:100e70007047fff7e5bf00bf0000024030b50346f2
:100e800085b088b1029200226c4608480392cde9f1
:100e9000000104ad224603caaa42186059601446f4
:100ea00003f10803f6d1012005b030bdb10e0208f0
:100eb00010b54468a31843600023934201d1012078
:100ec00010bdc85ce0540133f7e700001fb50346ce
:100ed00040b1054801accde9010103cc1860012007
:100ee00059609a6004b010bded0e020810b5446858
:100ef000a318436039b9012010bde05cc854013328
:100f00009342fad1f7e70023fae70000002908bf6f
:100f10003221024b1970024b186070472f44012098
:100f20008846012070470cb402b07047704700003b
:100f30002de9f04f00244ff0010c4ff0ff3627460b
:100f4000d0f804e0964504d211f80e80b8f1000ff5
:100f500009d18268511e03eb0213002980f2b2818d
:100f600060b2bde8f08fb8f13a0f7ed033d8b8f157
:100f7000220f00f0aa8010d8a8f109085ffa88f8bb
:100f8000b8f1170f0dd8b14d0cfa08f818ea050f93
:100f900007d0456801354560d2e7b8f12c0f00f065
:100fa0003181d0f8048042450ed911f808505db166
:100fb0003a2d00f268811f2d00f24f810a2d00f2b8
:100fc0005f81082d40f25581002b40f0618108f1ce
:100fd000ff354560a9e0b8f17b0f1dd00ad8b8f104
:100fe0005b0f19d0b8f15d0fdbd1002bd1d04ff0e2
:100ff000020906e0b8f17d0fd3d1002bc9d04ff024
:1010000001098568013d03eb0518002d30da013533
:10101000bfd16ff00100a4e70134002bb9d085687f
:10102000ddf824e0ae456ad905f1010ec0f808e00c
:1010300003eb051ecee90166cef80c704fea051ae7
:10104000c568b5f1ff3f1fbf03eb0519d9f80c5078
:101050000135c9f80c50b8f17b0f0cbf01250225f2
:1010600003f80a504568cef804508568013d1fe03a
:10107000d8f804a0baf1ff3f1cd0d8f808a0baf104
:10108000ff3f17d198f800b0cb45c2d10ef1010e49
:10109000c0f80ca0c8f808e003eb051edef80480d9
:1010a000b8f1ff3f0ad0def80880b8f1ff3f05d164
:1010b000c5606ee7013da8f11008a6e7013db5f156
:1010c000ff3faef1100ee9d163e70ef10109c0f860
:1010d0000490d0f80480424502d911f8085025b98f
:1010e000c0f804e06ff002003be7222d2ed1e3b1ff
:1010f0008568ddf82480a84504d8c0f804e04ff0e6
:10110000ff302ee74ff0030a05f1010e4fea0518f4
:1011100003eb0515c0f808e0c5e90166ef60d0f8fb
:1011200004e003f808a0c5e9019ec5680134b5f1e3
:10113000ff3f3ff42eaf002b3ff42baf03eb051e18
:10114000def80c500135cef80c5022e75c2d11d1a1
:1011500008f1010595420dd245604d5d752d2ed8e3
:101160006d2d0bd8662d2ad85b2d1fd8222d01d0ce
:101170002f2d24d1456801354560aae76e3d072d26
:101180001dd80ff2080a5af825f000bf75110208a1
:10119000bf110208bf110208bf1102087511020831
:1011a000bf11020875110208c511020840f241483a
:1011b0005c3dedb20cfa05f515ea080fdad1c0f87e
:1011c00004e026e74ff0040a08f102054560d0f874
:1011d0000480424512d911f808507db1a5f1300bb9
:1011e000bbf1090f04d925f02005413d052de6d8b6
:1011f00008f10105baf1010a4560e8d14568013df1
:101200004560b7e7002b3ff4c4aec5682d015d5db6
:10121000013d012d7ff6bdae856805f1ff3803eb7a
:10122000051eb8f1000ffff6b4ae1ef8105c013dcc
:10123000012d0dd85ef80c5c013509d05ef8085c14
:10124000013505d1c0f80c80a3e600bf1300800073
:1012500008f1ff38aef1100ee3e7a5f12009dff841
:101260007ca05ffa89f90cfa09f919ea0a0f7ff4f0
:10127000abae203d5e2da2d808f10105456090e699
:101280000d2df6d1a0e605f0df09b9f15d0ff8e705
:101290008568ddf82480a8457ff62faf05f10108a9
:1012a0004fea051903eb0515c0f80880c5e901668a
:1012b000ef60d0f8048003f80970c5e901e84568db
:1012c000013d86e653f80c2c013204d053f8082c6b
:1012d00001323ff407af0139103b3ee60110000434
:1012e0000023c0e901334ff0ff33c36070470fb4f0
:1012f00004b0704770470000034a044b32ea2000f4
:1013000028bf1846704700bf861d0308c811030890
:10131000034a044b32ea200028bf1846704700bf3a
:10132000861d0308c8110308034b1860034b19609e
:10133000034b1a60704700bf344601203846012035
:101340003c460120f0b5164b05461e680f46144674
:10135000abb036b9134b1b6803b3134b1b788342f6
:101360001cdc23791b0706d4fff7f4fb23796061ab
:1013700043f0080323718eb1dde93023a02102a8d8
:10138000fef732ff9f28c4bf7e238df8a6300023ce
:101390003a4600932946234602a8b0472bb0f0bd39
:1013a00034460120884601202f44012070b51a469a
:1013b000134b04461d680e46aab035b9114b1b6885
:1013c000bbb1114b1b78834213dc2e9ba02102a8da
:1013d000fef70aff9f28c8bf7e230146c4bf8df8d1
:1013e000a6309f213db100232246009302a8334638
:1013f000a8472ab070bd034b02a81b689847f8e7be
:1014000038460120884601202f4401202de9f04f65
:101410001446294a074688461568adb0002b39d0d6
:1014200035b9264a1268aab3254a1278824231dcbd
:101430000021dff89090dff884b08df8ac10e6184a
:1014400014f8013b2ca84fea131c19f80cc00844ef
:1014500003f00f034a1c00f8a4cc19f80330023142
:101460002ca80244a02902f8a43c09d1adb14ff048
:10147000000a43463a46cdf800a003a8a8475146c3
:10148000a642ddd131b175b100233a46009303a8dd
:101490004346a8472db0bde8f08fdbf8003003a825
:1014a00098472946ece72cab1944044b01f8a45c9f
:1014b0001b6803a89847ede73846012088460120bd
:1014c0002f4401202c1a030810b4094a034614685b
:1014d0001cb12346002210bc1847064a106828b1e8
:1014e000054a10788342b4bf0020012010bc704729
:1014f0003c460120884601202f4401204528dabfc0
:101500000a2390fbf3f00620034bd8bf20eae070db
:1015100053f82000704700bf101a030873b50d463a
:101520001946064b04461e68104626b10023224683
:1015300000932b46b04702b070bd00bf3846012073
:101540000bb1fff7ebbf70474ff080439863d9634f
:101550001a6470474ff080439a6b0280da6b4280c6
:101560001b6c838070470000024a536983f4005368
:1015700053617047000002404ff08043d86a013049
:1015800080b270470346084a30b500f11005144692
:1015900018685968083303c4ab422246f7d118686b
:1015a0002060002030bd00bf0c460120024b002807
:1015b00018bf1846704700bf88faffff0023c0e934
:1015c0000011c0e902328b781a44026191f90330ac
:1015d0001a4442610878003818bf0120704738b5b6
:1015e000416803460a78002a34d001f10a024260b9
:1015f0008c7a2cb9c2680168fff7e0ff204638bd3d
:1016000048780a7900f03005302d09d1cc7a04f001
:101610003004302c18d10c7bff2c15d10120eee7c3
:1016200000f0f004202c0fd14879424315b9986896
:1016300001309860087b10441a6902441a6191f9dc
:101640000d100a445a61e9e700f0c000802808bf85
:101650000422ebe71046d2e7f8b5066804461546c3
:1016600026b90120e2682a44e260f8bdc3688768b1
:1016700013449f4201d20020f7e7b0470028f0d181
:10168000f9e710b543780a4613f03001044686b0f6
:101690003fd0202990f9030005d160b1105cb0fa69
:1016a00080f0400907e03029f8d0102905d120b199
:1016b000105c80f0010006b010bd13f0c00f0dd11a
:1016c00003f00f03052b01d11078e8e7062bfbd0c0
:1016d000092b01d12079e2e7072b05d023791344a8
:1016e000934212d10120e6e76846d4f80610fff7ce
:1016f00065ff0028f6d004990198fff7c2ff002883
:10170000d9d06846fff76bfff3e712f8011b0029f9
:10171000e6d00020cfe7802a7fb5114673f10002a2
:10172000044607d201228df8041001a9fff794ffa7
:1017300004b070bd002201ae61f07f00cdb2c909d6
:1017400041ea4361db0951ea030c06f8010b10463c
:1017500002f10102f0d104ab034405f07f0103f86c
:101760000c1c204601a9e1e7134641eac2025b0fc7
:10177000fff7d1bf4a780b4602f00f02092a10d8b2
:10178000dfe802f00d0d0d05090b0b0b0f0b05210a
:101790001a78fff7e9bf0121fae70221f8e70021f3
:1017a000f6e70020704700002de9f04715464a781b
:1017b000064602f0c003402b0c4686b000f0d280f3
:1017c00053061bd46a4b02f00f0153f8217094f9b1
:1017d0000330bbb12b44627802f0c000802805d1f1
:1017e0002d68291e18bf01218df8071002f0300165
:1017f000202936d019d8f9b110292dd0002006b0f3
:10180000bde8f08702f03002102a0ad129462046ae
:10181000fff737ff80f001008df807000df1070397
:10182000d9e701238df80730f8e73029e6d11a7897
:1018300023789a4213d101e0002ddfd021463046b3
:10184000fff798ff0028d9d02a46214630463b466c
:1018500006b0bde8f04718471b78002beed10120f9
:10186000cde794f9031059b393f80080b8f1000f55
:10187000f5d0802802d063799845bfd802f00f02d6
:10188000042a4cd8022130462278fff76dff002849
:10189000b4d0637803f00f03032b14d14fea880907
:1018a0004a4600233046fff736ff0028a6d03168ad
:1018b00029bb4a46304606b0bde8f047fff7ccbe2c
:1018c00094f80580d2e7042b02d14feac809e7e774
:1018d0001022002102a80df06af8aa464ff0000974
:1018e0005246214602a8b847002888d0237909f13a
:1018f0000109c8459a44f3d8ddf81490d0e74ff0b9
:1019000000092a4621463046b84700283ff476af02
:10191000237909f10109c8451d44f2d89fe74ff02a
:10192000000921463046fff725ff00283ff466af47
:10193000637803f0c002802a12d103f00f03053b45
:10194000012b0dd82a6821463046b84700283ff4bd
:1019500055af237909f10109c8451d44e1d87ee757
:101960002a46f0e72b68002b3ff479af2a1d6fe77a
:101970002c19030830b587b005466846fff71efef0
:1019800010b9012007b030bd0199049a4b7803f0db
:101990000f03082b1cd114681cb96846fff71ffe03
:1019a000eee723685a682ab121462846904768b96d
:1019b0000020e7e7996828464b7803f0c003802ba6
:1019c00014bf6268221dfff7effef0e7a468e3e7ab
:1019d0002846fff7e9fe0028dfd1e9e77fb50d468d
:1019e000164600211022044668460cf0e0ff3246fd
:1019f00029466846fff7beff08b1039b236004b089
:101a000070bd70b5002304460d461646fff783fef1
:101a100030b1324629462046bde87040fff71cbe73
:101a200070bd2de9ff410e461746002110220446e5
:101a300068460cf0bcff3a4631466846fff79aff0d
:101a400048b34ff00008039d43462a462046fff75f
:101a500062fe00b3216831b92a462046fff7fcfd3b
:101a600004b0bde8f081e268a3682a449a4212d823
:101a700063683a46009168463146cde90135cdf8b4
:101a80000c80fff777ff039ae368aa421344e360f0
:101a9000019b6360e4d00020e2e713460a79012a43
:101aa00004d193f90020d317fff735be022a02d1e3
:101ab000b3f90020f7e7042a01d11a68f3e7082aee
:101ac00002d1d3e90023efe70020704713460a79db
:101ad000012a03d11a780023fff71dbe022a01d183
:101ae0001a88f8e7042a01d11a68f4e7082a02d113
:101af000d3e90023f0e7002070470b79012b0bd1cd
:101b000092f90030d917da1841eb01030029bcbf64
:101b1000d243db43fff7ffbd022b02d1b2f9003005
:101b2000f0e7042b01d11368ece7082b02d1d2e9ce
:101b30000031e8e70020704707b5d2e900130a0a30
:101b40008df801200a0c8df802201a0a8df8001079
:101b50008df80520090e1a0c8df803108df804304d
:101b60008df806201b0e082269468df80730fff716
:101b700073fd03b05df804fb07b513681a0a8df80e
:101b800005201a0c8df8062004228df804300deb88
:101b900002011b0e8df80730fff75efd03b05df804
:101ba00004fb30b40c460546114612b930bcfff7b1
:101bb00028bf6378127813f0c00003d12479531c36
:101bc000a34202d828460131f0e730bc704710b478
:101bd0000b79497801f0c001802908bf4ff0ff332d
:101be000114622b100229a4201d08c5c14b910bc7b
:101bf000fff707bf0132f6e7d1f8061009b1fff78a
:101c000010bf0846704713460a791946fff7f9be18
:101c100030b50446154685b0a9b90268114b9a4201
:101c200011d0102d06d82a4669462046fff7f0ff4e
:101c300005b030bd102269462046fff7e9ff0028b5
:101c4000f6d0103dede7a368ab4201d20020efe7ec
:101c50002a462046236898470028f7d0a268521bde
:101c6000a260e5e7ed0e020810b5836804460bb9e3
:101c7000002010bd0122036898470028f8d0a3680f
:101c8000013ba360f5e72de9f34188460df107011b
:101c900007461446fff7e8ff064658b9bb6823b16c
:101ca0000026304602b0bde8f081002cf8d00123b8
:101cb0002370f6e79df907309df80740002b21dae5
:101cc000072504f07f0438460df10701fff7ccff2c
:101cd0000028e5d09df807301f2d03f07f0214d9ae
:101ce0003f2d34bfff2101211ab1002cd8da9942cf
:101cf000d6d11a0605f10705e5d4232d02d113f03c
:101d0000700fcdd1c8f80040cbe7aa401443f0e7ec
:101d10002de9f341002580460e462f462c464046cd
:101d20000df10701fff7a0ffc0b19df807c0a4f1b6
:101d300020030cf07f02c4f1200102fa03f322fa1f
:101d400001f10b43a2401cf0800f45ea020547ea6f
:101d5000030704f1070404d1c6e9005702b0bde847
:101d6000f081462cdbd10020f8e713b504460529a5
:101d700026d8dfe801f0030f17252523012220468e
:101d800001a9fff745ff18b19df90430002bf5dbe1
:101d900002b010bd08220021204602b0bde810406c
:101da000fff736bf002201a9fff76dff0028efd033
:101db00000212046019afff72bffe9e70422eae71a
:101dc0000020e5e737b50d46002201a90446fff7dc
:101dd0005aff034618b90023184603b030bd94e8f3
:101de000070085e8070001998a42f4d3a960a26838
:101df000521aa260f0e738b58a6805460c461ab94f
:101e0000012063686b6038bd00212046fff700ffaa
:101e10000028f5d1f7e77fb50a4601466846fff787
:101e2000cdfb30b1684600f0e5f86846fff7d7fb18
:101e3000f7e707b05df804fb2de9f0430b46516866
:101e400015464a78064612f0c00487b003d0402ced
:101e500073d000240ce002f00f0c644f02f030024b
:101e6000202a57f82c702cd006d8d2b1102a1ed0b8
:101e7000204607b0bde8f083302af9d16b690a78b3
:101e8000bcf1070f1a7018d16b6821461a792869be
:101e90000cf08dfd6b682969d3f80600fff7bbffd6
:101ea0000be02a693b4607b0bde8f0431847d5e987
:101eb000042393421cbf01221a702a6969683046c4
:101ec000f0e7022bd5f8148029d1bcf1040f26d8f5
:101ed00003a9fff777ff04460028bad0059b2bb172
:101ee000696898f800304a799a4209d8059b002b16
:101ef000afd1304603a9fff77eff0028b8d1a8e78d
:101f000008792a6903fb002203a8b84728b198f88a
:101f10000030013388f80030e0e70446e6e798f83f
:101f200000300879591c2a6988f8001069684c79d2
:101f30009c428ed903fb0022c1e72f690fb13a689a
:101f400032b91946304607b0bde8f043fff70dbf80
:101f5000022b07f1040816d103a9fff733ff00286d
:101f60003ff477af42463b68696803a8984700286a
:101f70003ff46faf059b002bf4d1304603a9fff768
:101f80003aff044674e7012b21d0052b27d0002b04
:101f90007ff45faf1c46e94601340b2c3ff459af88
:101fa000012249463046fff733fe00283ff451af87
:101fb00019f9013b002befdb0d4bcdf810d003934b
:101fc000059442463b68696803a89847d9e7082208
:101fd0006946fff71dfe08240028edd139e70422e9
:101fe0006946fff715fe0424f6e700bf041903084d
:101ff000ed0e020830b542680346527887b002f011
:102000000f0108291dd1002503691c680cb907b010
:1020100030bd23682573996862686846fff7cefa79
:1020200063686846049304f10c0305934b7803f04e
:10203000c003802b04bf231d0493fff7dbffa468bc
:10204000e4e712f0c0012ad102f03000102814d1c8
:10205000d3e90402824200d011705a68186953789b
:10206000d2f8064003f00f03072b0bd101462046a0
:1020700007b0bde83040fff7cebe9006edd55b69f6
:102080001970c4e72146127924b107b0bde8304089
:102090000cf07fbc07b0bde830400cf088bc802954
:1020a000b5d10021006992060160b0d5e7e72de9be
:1020b000f04f002491b0054604a8cde902448df804
:1020c0000640a146fff77afaa346ab68d3b924b11c
:1020d00062799df806309a4252d1dde9053404a8b0
:1020e0005d78fff77cfa0028f7d115f0300f03d1a7
:1020f000059b1b7803b10134402c7bd8002c7ad18e
:1021000001203ee028460df107020aa98df807b02c
:10211000fff7b9fd20b10a9f3fb901238df80730c1
:102120009df80730002bd2d12ae0ddf814a04fea49
:10213000d70807f00707059b1a78904504d15a780d
:1021400002f00f01082979d104a8fff748fa059e8b
:10215000b245f0d1c1450dd8059a537803f00f036d
:10216000082b4fd004a8fff73afa059b9e42f3d103
:102170004ff0ff3939462846fff7f7fd0028a4d174
:10218000002011b0bde8f08f99680b78984553d1c5
:1021900072680aa8fff712fa736828460e9306f1d0
:1021a0000c030f934b780aaa03f0c003802b04bfe3
:1021b000331d0e934ff0010339463373fff73cfe96
:1021c00038e051f8040b0130dad101329342f8d1f2
:1021d00014f01f0494d04ff0ff3010aa02eb8303d9
:1021e000c4f1200420fa04f453f8380c231a58429e
:1021f0005841c6e740240022630902a9e6e79a4550
:10220000b8d062e792f80090c145b3d8089bd5f8e2
:1022100008a01e68ab68002ef1d09a457ff455af38
:1022200033681a689446002aaed03b46424631468f
:102230002846e0470028a3d0b668ebe702f030025a
:10224000202a11d1dde9082191420dd19c4207d00d
:1022500024b161799df80620914291d18df806b0a4
:102260001c460df1060209925b7813f0300f10d175
:10227000069b3f2b0dd85a0910a901eb82020121c0
:1022800003f01f0301fa03f352f8381c0b4342f822
:10229000383c3946284604aafff7cefd6ee737b52d
:1022a0000d4669461446fff733fd30b1dde90012f3
:1022b0002b79082b03d1c4e9001203b030bd042be5
:1022c0004feae17009d10b4602462160824208bf05
:1022d0008b420cbf01200020efe7022b03d10bb291
:1022e0002380da17f2e7012b02d14bb22370f8e713
:1022f0000020e2e737b50d4669461446fff708fdb2
:1023000070b12b79082b0dd1dde90032c4e9003220
:10231000dde90001914208bf98420cbf0120002076
:1023200003b030bd042b03d1009b23600022efe7f4
:10233000022b03d1009b23809bb2f7e7012b04d132
:10234000009b237003f0ff03f0e70020e8e773b57c
:102350000e4669461546fff7dbfc78b1dde900243f
:102360005308d207327943eac4734fea540444bf96
:10237000db43e443082a03d1c5e9003402b070bd51
:10238000042a09d11a462b60d917a14208bf9a42e4
:102390000cbf01200020f1e7022a03d11ab22a80e3
:1023a000d117f2e7012a02d15ab22a70f8e70020c9
:1023b000e4e713b5144604220deb0201fff728fcf5
:1023c00008b1019b236002b010bd13b514466946e5
:1023d0000822fff71dfc18b1dde90023c4e9002342
:1023e00002b010bd73b50d46144601a90022064681
:1023f000fff749fc88b1019aff2a10d86b78511c6d
:1024000003f0c003802b0ad02b798b4207d32146df
:10241000304601f8012bfff7fbfb02b070bd002036
:10242000fbe7f7b50e46154601a900220746fff760
:102430002afc98b1019a0024511c04d2737803f04d
:10244000c003802b01d1204608e033798b42fad3b8
:1024500029463846fff7dcfb019bec5403b0f0bd86
:10246000f0b585b00d46d1f8067001a906461446b0
:10247000fff7a8fcb0b1d5f806309bb16b7803f03c
:102480003003202b03d121463846fff7c4fc2246f7
:10249000394601a8fff70bfe01a904463046fff7b5
:1024a000aafc00b90024204605b0f0bdf7b50f46e0
:1024b000154601a900220646fff7e5fb044638b1a0
:1024c0000199ff290fd83a7929b928460cf06ffafb
:1024d000204603b0f0bd8a4205d129463046fff7b9
:1024e00097fb0446f4e70024f2e770b504460e4675
:1024f00015460021ac220cf05afac4e9296570bdda
:10250000002238b50d4611460446fff7eeff4ff4a2
:10251000807205f12101626004f1080009f06ff991
:1025200004f114001021bde83840014a09f0acbba9
:10253000d61103080022f8b50c4611460546fff7f0
:10254000d4ff80226a60677a05f1080007f001076e
:1025500007f10a012144a7f16f0609f050f9f6b21c
:102560002d4a102105f1140009f08efba35d05f141
:102570002000da0744bfa7f16e06f6b2711cc9b29b
:1025800006f182072144802209f039f9e35d4022f7
:10259000db0748bf06f18307791c07f14206214497
:1025a00005f12c0009f02bf9a35d4022d80748bfa4
:1025b00007f14306711c06f14207214405f138007a
:1025c00009f01df9e35d4022d90748bf06f1430732
:1025d000791c07f14206214405f1440009f00ff986
:1025e000a35d05f15000da0748bf07f14306711cef
:1025f0002144402209f003f906f14201635c05f130
:102600005c00db0748bf06f1430101312144402251
:10261000bde8f84009f0f3b8d611030870b5b0b0c2
:10262000044605a815461e46fff784ff002204abaa
:10263000cde901450093cde903620123084905a8ce
:102640000af0a6fe054605a8049c0bf035fa15b95c
:10265000204630b070bd85eae570c0ebe570f8e764
:102660004d0a020870b50446d0e9015305eb031684
:10267000ae4206d0281d6ff095010bf032ff1035e9
:10268000f6e7d4e9015305eb0316ae4204d0281d4a
:102690000cf0f4f81035f8e700234ff0ff32a36098
:1026a000c4e9042370bd38b50025044680f8885677
:1026b00080f86056c0f8545680f88c50c0f890509e
:1026c000c0f8b05000f5d360fff7ccff6068036836
:1026d0001b6b98474ff0ff33c4f86c56c4f8743640
:1026e000c4f8783638bd8842f8b506460c4615461b
:1026f0001ad9904219d20026a2f110056c1aa1f144
:1027000010070444af4223d044b12b8823806b6868
:102710006360ab68a360eb686e60e360281d0cf03b
:10272000adf8103d103cede712d00027ac420fd0c1
:1027300046b12388338063687360a368b360e3683d
:102740006760f360201d0cf099f810341036ede747
:10275000f8bd2de9f04300254ff0ff3306460c4647
:102760009046a946c0e9005585b00b61a3689d421b
:102770003bda62682b01d35a02eb0517b8f8002048
:1027800093422bd1adf800307b68381d0193bb68b4
:102790000293fb68c7f8049003930cf06ff8d4e938
:1027a0000132384603eb021207f11001fff79bffdd
:1027b000a3686ff0f901013b3046a3600bf091fe76
:1027c000019b01a83360029bcdf8049073600cf06c
:1027d00055f8a368002bc9d16361c7e7fb6822697c
:1027e0000135934238bf2361c0e7304605b0bde8ec
:1027f000f083f0b590f88c30054687b0002b32d1cd
:10280000c36e984795f8604654bb012795f8b066ab
:10281000c5f85406f31985f8b03601a885f8607636
:102820000cf023f868682246036801a9db69984721
:102830004122019b01a91a70b1225a7174229c7025
:10284000dc701e719a715f70029b6868072b24bf51
:102850000723039303685b689847b0fa80f4640920
:10286000204607b0f0bd0024fae730b504460d4617
:1028700087b001a80bf0f9ff60680022036801a986
:10288000db699847019b9db9d4f8802652070fd584
:102890001d700125e36e9847029ba0609d42606811
:1028a00098bf0395036801a95b68984707b030bdde
:1028b00040221a70002204255a709a70da70e9e7f3
:1028c000f0b5036887b01d6801a80e681f7a0bf089
:1028d000ccff2b680a2201a92846db6998472b68a0
:1028e00028465b69019c9847002814bf4123512367
:1028f0002370442363700023a370e370ff2363718c
:102900003316a3713314e371277133122372029bc0
:102910006672092b84bf0a2303932b6828465b68e1
:1029200001a99847003818bf012007b0f0bd2de974
:10293000f74f00f5866805460f464ff0000ac1467e
:10294000cde900230c9ed8f84030009a9a4277d106
:10295000d8f844300d9a9a4272d198f84830019aca
:1029600093426dd1402138460df0eafd58230246ce
:102970003946404603fb0afb0df0cefd0446002815
:102980005ed1002e53d00c2130460df0d9fd024609
:1029900000284cd00bf14900314648440df0bcfdf5
:1029a00000283ed0582305f58e6203fb04f852f848
:1029b00008a0baf1000f4ed1402138460df0c0fdfd
:1029c00005f5866b0beb080381460246394618462f
:1029d0000bf0dfffc9f14002514648440bf0e7ff1e
:1029e000009a05eb0803c3f870240d9a83f879a4c4
:1029f000c3f874246eb30c2130460df0a1fd0746d8
:102a000008f149003a46314658440bf0c2ff5820bd
:102a100000fb04540020019b274487f8790484f8c4
:102a20007834b0fa80f0400903b0bde8f08f582345
:102a300003fb0a5a9af879040028f2d00024b1e77f
:102a40000af1010abaf1060f08f158087ff47bafca
:102a5000f4e73746d4e70134062ca6d10420e0e79a
:102a60002de9f843884600f5866631b93046bde861
:102a7000f8434ff404720bf09abf002534462f46fa
:102a80004ff05809214640460cf0d1fa014650b9a2
:102a9000582220460bf08bff0137062f04f1580413
:102aa000f0d1bde8f883af420ad05822214609fb95
:102ab00005600bf06eff5822002120460bf077ffd7
:102ac0000135e9e710b50446034b036000f294704a
:102ad00005f0e2ff204610bdc019030810b50446fa
:102ae000024b0360fff7eeff204610bd6819030894
:102af00010b50446fff7e6ff20464ff40c610bf0db
:102b000044ff204610bd10b50446fff7e7ff2046fe
:102b100040f6c4010bf039ff204610bd2de9f04fff
:102b2000d0f85037071dc362d0f85437282203630a
:102b3000d0f858373946ebb043630446fdf753fdf0
:102b40000028c0f2ac8004f2ec45294604f13800bc
:102b500004f57179fdf7bcfb494614a8fff7d0fcda
:102b6000d6230093002304f1da081a46cde9017850
:102b70004e4914a80af0d0fa064614a80af09cffa1
:102b8000002e40f08e804ff4807241462046fdf7c3
:102b900004fd4ff4c07239462046fdf724fd00289d
:102ba000c0f281804ff0280a4ff0800b29463fa8e1
:102bb0000df114080deb0a05fff7bcfc32460123aa
:102bc000cde901753949cdf80ca0cdf800803fa8ba
:102bd000cdf814b00af0dcfb06463fa80af06cff03
:102be000002e58d13b4652462946cde900b8304820
:102bf0000bf05cfb49463fa8fff782fc04f184031d
:102c0000cde9028314233246cde9006327493346d8
:102c10003fa80af02ffc06463fa80af04dff002e01
:102c20003bd104f25c760eab2a4603ca9a4230606e
:102c30007160154606f10806f6d11f4604f26c765f
:102c400012ad3a4603caaa4230607160174606f1d7
:102c50000806f6d104f27c761a4603caaa4230600e
:102c60007160134606f10806f6d12b4603cbd4f863
:102c7000bc38c4f88c07c4f8901713b1b4f88c278b
:102c80001a80d4f8b03813b108212846984700209c
:102c90006bb0bde8f08f0620fae70820f8e71920ae
:102ca000f6e70720f4e71a20f2e700bf4d0a020812
:102cb000d81a0308531c70b505460e46144603d1b6
:102cc000084606f027fc04466b68a3420bdb22464d
:102cd0002968304606f041fc22462846bde870408f
:102ce0000021fdf720bc70bd30b57f29044685b0ba
:102cf00007dc8df80410012201a9fdf714fc05b0d2
:102d000030bd802301258df80330002301a8cde9d3
:102d10000153039308f0e8fc01a806f0fbfb9df8c3
:102d200003302a4603430df1030120468df803309a
:102d3000fdf7f9fb4ff0ff3201a9fff7bbff01a838
:102d400008f02cfcdbe773b50223144605460e465b
:102d500001220df107018df80730fdf7e4fb214654
:102d6000fff7c2ff224631462846fff7a3ff02b015
:102d700070bd7fb504460d460126002101a8cde9ae
:102d80000161039108f0b0fc324601a92046fff72b
:102d9000daff01a808f002fc204605f108018122b3
:102da000fff7d1ff204605f114010322fff7cbff07
:102db000204605f120018122fff7c5ff204605f1dd
:102dc0002c014122fff7bfff204605f138014122c7
:102dd000fff7b9ff204605f144014122fff7b3ff99
:102de000204605f150014122fff7adff4122204668
:102df00005f15c0104b0bde87040fff7a4bf00001e
:102e0000f0b517460022b5b006460d4609a8114692
:102e10001c46fff76afb4ff001131649009304aa02
:102e20004ff4806309a8cde904740af081fe0446da
:102e3000d0b9cde90750069009a906a8fff799ff78
:102e40003023089f06a801220df10f018df80f30e5
:102e5000cde906650894fdf766fb3946fff744ffa8
:102e600009a906a8fff785ff09a80af025fe204654
:102e700035b0f0bd530502082de9f34706468868d2
:102e8000a8b320f00f0808f110075ffa87f90c6863
:102e9000a9eb0002d2b2114606f2947a20440bf05c
:102ea00086fd06f26c75802206f25c71504605f0d4
:102eb000f9fd2b463a4601215046cde9004408f081
:102ec00095f9234604f1100253f8041b934245f888
:102ed000041bf9d13f0a304604f8027c04f8019c37
:102ee00008f11202a11efdf758fb002803db0020a9
:102ef00002b0bde8f0871620fae78b6810b4032b08
:102f000016d9cb68002bb7bfb0f8c0389bb20133dd
:102f10009bb2b8bfa0f8c0380a681c0a9470d3707e
:102f20008b68032b04d90b685b885bba9bb2cb60c0
:102f300010bcfff7a1bf2de9f0470022d0f8b83848
:102f400004460e4686b00221043098470228054602
:102f500023684cd1a288314652ba95b22a462046ff
:102f6000db699847074600283dd1d6f800802a46fd
:102f700041462046fdf737fb002844db02aa4346c2
:102f8000914608f1100e9446186859680833ace869
:102f9000030073456246f6d104f2947a04f25c7140
:102fa000802204f27c74504605f052fe23462a46e5
:102fb00000215046cde9008808f018f9cc46234698
:102fc00006ac624603caa24218605960944603f1f7
:102fd0000803f6d108eb050313f8012c7368aa1a4d
:102fe0009a4200d8b260384606b0bde8f087db6987
:102ff000002231462046984700239d42acbf074639
:103000001827b360efe71727ede700004ff4407390
:1030100030b5002585b04b81074b0c464a686946a0
:103020000093cde9015503950bf0eafa2846039b7e
:10303000238105b030bd00bf5c1903082de9f041c4
:10304000804688b003a80e4617461d460bf00dfcbf
:10305000d8f8003000225c6803a923682046db69a9
:103060009847002842d1d8f80000d0f8c0365a1e40
:10307000b2f5597f88bf4ff458739df8382098bf38
:10308000063bab4202f1ff3228bf2b46082a28d864
:10309000dfe802f0051a272427272727210003b39a
:1030a0003b788df808300123009302ab3246039938
:1030b0000bf089fb049b834200d3059023682046d4
:1030c0005b6803a9984711e0032b0ad93b681bba38
:1030d00002930423e8e7072b03d9082300933b4618
:1030e000e4e7a023324603a90bf04bfb08b0bde890
:1030f000f081003818bf01200bf05aba08b5074b11
:103100001a7802f0ff003ab901221a700bf050fa57
:10311000bde80840fdf794be08bd00bf044601208d
:10312000044b1a7822b1002201201a700bf040ba29
:10313000704700bf04460120012110200df0bab9ec
:1031400001210c200df0b6b930b585b008ac54f8ab
:10315000045bcde900540394fef7f4f805b030bdec
:1031600008b410b585b007ac54f8043b0094039440
:10317000fef71cf905b0bde8104001b0704770b50e
:10318000d0e90043204643f31d03002b0ddd5a1008
:1031900050f8226000eb8205b6888e4203d29b1a5b
:1031a000281d013bf1e71346efe7001b801070bdbf
:1031b00008b5024b1b681b68019308bda0010608f7
:1031c00070b5464e3468002c40f085800320fdf732
:1031d00025fc054600287dd140f68870fff7e8ff02
:1031e0000446002876d000f2c46343603c4bc0e93b
:1031f0002555c3601423a0f894304ff48073a0f8d1
:10320000b830384b4ff40472c0f8c0302946c0e9da
:10321000275580f88c50c0f8a450c0f8b450c0f8be
:10322000bc50c0f8c800c0f84056c0f84456c0f8ba
:10323000485600f586600bf0bafb0020002104f52b
:10324000ca63c4f84c46c4f85056c4f85456c3e98f
:10325000020142f21073c4f890360223c4f8943687
:103260004ef66023c4f898364ff0ff33c4f8a83602
:103270004ff40073c4f8b8361b4b84f860562360d3
:103280001a4bc4f86856c4f8c436c4f86c56c4f86f
:103290007056c4f87c56c4f8805684f8845684f876
:1032a0008856c4f88c56c4f89c56c4f8a056c4f886
:1032b000a456c4f8ac56c4f8b456a4f8bc56c4f826
:1032c000c05604f6586005f0e2fb094ba4f8845f91
:1032d000c4f8c4363460306870bd00bf4046012079
:1032e0000600fffffc190308a4190308c01903080e
:1032f00068190308012a38b5044602d10b68236017
:1033000003e0022a03d0032a0dd0002038bd0c2090
:103310000d68fff74dff03460028f0d095e8070041
:1033200083e80700ebe700680028eed00c210bf0e3
:103330002cfbeae708b5024b1b685b68019308bdec
:10334000a00106082de9f04f994600239db01646ce
:10335000dde926b205468a46cde9033342b1d2e91a
:10336000011217a8cde90312189217930bf086faf1
:103370000024039b95f88c800593049b039406938b
:10338000b8f1000f0ed06ff06d0105a80bf0a9f891
:1033900005a80bf073fa03a80bf070fa20461db0d5
:1033a000bde8f08feb6e6f689847059b0446079366
:1033b000069b05225046aa490893cdf814800df0cb
:1033c000abf878b308225046a6490df0a5f848b3eb
:1033d0000522a548a549036841f82340013393fb22
:1033e000f2f202eb82029b1a036051f82300241ac6
:1033f000b4f57a7f24d209249d4a936901339361fd
:1034000007a80bf03bfa002c00f02881232c96bf74
:10341000984b6ff0ef0133f9141005a80bf061f829
:103420000024b5e7944a210c1388b3eb144f934b57
:1034300040f001811a78ff2addd01a7801321a7023
:103440000bf01a0317a800930bf00ffa3b68002249
:10345000db6917a9384698473b6838465b69984747
:103460001bf0020f034640f0ea801bf0080f18bf64
:103470000123002e00f0e580d5f84c260193d2f808
:10348000c01640f2ae32481e904288bf4ff45871c9
:10349000304698bf50390df053f88046019b002b01
:1034a00014bf40235023179c2bf01a0b23700223c8
:1034b00063700023a370e370b12340212371504651
:1034c000a31d84f805b001930df03af8019b024664
:1034d00051461846fcf73eff019bb9f13c0f03eb48
:1034e00000020ad0332119544fea294353704fea9e
:1034f0002923937082f8039004326eb1b8f1000f63
:103500000ad01346ff2203f8012b314642461846e3
:103510000bf03ffa00eb0802189b121b934228bfe6
:1035200019923b6838465b6817a9984704460028fb
:103530007ff466af009b1b0740f189801a9a002a2e
:10354000c0f28580dde90713d5f84c56cde90b13a1
:103550000a9307900990002966d0d5f8ac76d5f883
:10356000a06607f59c47cde9141392b22037adf859
:103570004c2016970e931193d5f8a4360b909e42cb
:10358000adf83c200d90129710901bdb06f1010a5c
:10359000baf1000f57dd4fea0a194846fff708fe57
:1035a0008046002851d0d5f89c16a9f110020a4493
:1035b000fff799f8d5f89c06fff7bcfec5f89c8686
:1035c000c5f8a4a6d5f89c86d5f8a0264fea06191a
:1035d00008eb0616314608eb021206f11000fff761
:1035e00082f85eb1bdf84c3028f80930149b736046
:1035f000159bb36000231493169bf3600126d5f846
:10360000a0360133c5f8a03614a80bf037f910a87e
:103610000bf034f90da80bf031f92eb1d5f8a8361e
:103620009f4238bfc5f8a8760ba80bf027f909a868
:103630000bf024f9e4e6118000221a70fde6002365
:1036400017e7b0462be78046b4e72646dce70023c1
:1036500013a907a813930af039ffd1e6012497e6ce
:10366000dc110308e21103084c4601201844012034
:1036700054460120a0180308484601205046012066
:103680002de9f04188b00e9c15462668277908b3cd
:103690001d2896bf134b4ff0a00813f8008003a815
:1036a0000bf0e3f833680022586803a90368db696c
:1036b000984728b943463a46306803a90bf061f8a9
:1036c0002846fff737fe0821204608b0bde8f04144
:1036d0000bf05bb9c9b2009130463946fff7aefc3a
:1036e000eee700bf8118030808b510b1fff722fe0e
:1036f000012008bd08b510b1fff71cfe012008bd70
:1037000008b5024b1b689b68019308bda001060821
:103710002de9f043884687b0074601a891461c462c
:103720009df838500bf0a1f8d8f800300022db6982
:10373000404601a9984740220123019e32707370d0
:10374000002c45d00023b370f370b123337165238f
:10375000b51d7371b9f1000f09d03f2148460cf037
:10376000effe494602462846fcf7f4fd05443f219a
:1037700020460cf0e5feff23814605f8013b02469a
:10378000214628460bf005f94d44ae1b029b4046ee
:103790009e42d8f8003098bf03965b6801a998470d
:1037a000044688b9d7e985539d42bdf810603bdbdc
:1037b00005f10108b8f1000fd7f810022ddd4fea2e
:1037c0008801fff79dff58bb204607b0bde8f08396
:1037d000b12333716523b470f4707371b41db9f102
:1037e000000f35d03f2148460cf0aafe494602465c
:1037f0002046fcf7affd044445b92346412203f8b7
:10380000022b752262701c46a61bbfe799f8003098
:10381000002bf9d14ff0ff36b8e7fff78bfd2046bc
:10382000c7f81002c7f81882d7f81082d7f8142208
:1038300008eb85019200a2eb8502081d0cf052fef8
:1038400048f82560d7f814320133c7f81432bbe7c3
:10385000002dd2d0dee737b5044600201346c4f869
:1038600044060a460090616804f58660fff750ff41
:10387000054638b9236c2bb104f5c86104f5cd6059
:103880000af0c2ffb5fa85f0400903b030bd00234d
:1038900037b5c0f84436009204460a46416800f540
:1038a0008660fff735ff054638b9236c2bb104f568
:1038b000c86104f5cd600af0a7ffb5fa85f04009ac
:1038c00003b030bd2de9f041036c04469ab0ebb172
:1038d0000422014602a8fcf799ff61680aa80b6858
:1038e000db6a984704220aa902a8fcf7e3fe68b144
:1038f00020220023cde912231e4a1e2000921e49d9
:1039000012aafff721fc1ab0bde8f08100252023a0
:10391000cde91235194b1e20009317492b4612aae8
:1039200004f58666fff710fcc4f844563546676810
:1039300004f5c8682b6c6bb958354545fad1236c32
:10394000002be0d0294604f5cd601ab0bde8f04167
:103950000af05abf95f849300bb105f1490395f8c3
:1039600048203946009230462a46fff7d1fe00280b
:10397000e2d0c8e7f9110308eb1103082d12030880
:10398000f8b50f4e0f4f3578bff35b8f337805f0e6
:1039900001051d4312d11020fff70afc044650b167
:1039a000c0e90055856005738020fff701fc10b168
:1039b00020232060a36001233c6033703868f8bd89
:1039c0000846012044460120f8b50746fff7d8ff16
:1039d000037b044673bbb988fff7d1fb0546d4e9e6
:1039e0000006b54204da50f825309b888b4224d07b
:1039f000a3689e420ddb0136002e05ddb100fff706
:103a00007ffe20b90e4814e0fff794fc00202060f0
:103a1000a6602668626806eb85019200a2eb85022b
:103a2000081d0cf05ffd002046f825706368013327
:103a30006360f8bd6ff0d100fbe76ff0b300f8e70b
:103a4000fcfeffff2de9f84307460e469046fff7c0
:103a500097ff037b0546a3b177b1d0e9004304eba0
:103a600083094c45234607d0414618680434b847bb
:103a70000028f6d0bde8f88336b16b6800203360cb
:103a8000f8e76ff0d100f5e73046f3e770b506468a
:103a90000c46fff775ff037b05467bb13146fff708
:103aa0006efb6b6898420cda2b6853f820309a88ca
:103ab000b24206d144b10020236070bd6ff0d10046
:103ac000fbe76ff0a900f8e72046f6e710b50446db
:103ad000fff756ff022c05bf012303736ff0770039
:103ae000002010bd08b5024b1b681b6b019308bd7d
:103af000a0010608fff75cbbfff71cbc08b5024b32
:103b00001b689b6b019308bd9c0106082de9f74fcc
:103b100005461446fff7f2ff384b602253f8359004
:103b20004ff47f03364e4ff002083360354bdff819
:103b3000d8b01a70fff7f4fa0123344a1846344912
:103b4000fdf7ecfcfdf77cf9324fdff8cca0032346
:103b50000193c6f80090fdf749f95846a047fdf7d4
:103b60006ff93846a047019b013b9bb2002befd178
:103b70003846a04703230193c6f80090fdf736f9b5
:103b80005046a047fdf75cf93846a047019b013b32
:103b90009bb2002befd13846a04703230193c6f810
:103ba0000090fdf723f95846a047fdf749f938463c
:103bb000a047019b013b9bb2002befd11748a047c8
:103bc000abb263b91648a047b8f10108bfd142466d
:103bd00029468220fcf72aff03b0bde8f08f01934d
:103be000c6f80090fdf702f95046a047fdf728f906
:103bf0005046a047019b013b9bb2e2e7501a0308e5
:103c0000784601202e440120f049020043120308a7
:103c100045120308a0860100e0930400a0bb0d003c
:103c200000350c0000210c2008b5024afff76eff9a
:103c3000fee700bf4902020800244ff0200c00b547
:103c40008fb0cde90323094bcde901010093214653
:103c5000322006aa2346cde906c4fff775fa2146ad
:103c60000a20034afff752fffee700bf4b1203088a
:103c7000490202082de9f04f914cb5b01193109014
:103c800023680992002977d123b942f6f020fff783
:103c90008ffa20600023226813608a4a1360002391
:103ca0000893109b089cda68864b3e981b6820445a
:103cb00000909a4214bf02200020814903900e68b0
:103cc0001099099889688a180192009a01eb030bf0
:103cd0000244059202462244501e12ea00050c904e
:103ce00040f00e873e98009ca04200f21087306a98
:103cf00074680490d6e909800290f06bb76b069067
:103d00003068352800f2f786dfe810f03f009600b3
:103d1000d4002f01f5063c0151016601f506b501fd
:103d200003027202f506f5068c02f506ec03120496
:103d30004904f506f5065604f506ac04c204ed0583
:103d40001c064306f506f506f506f506a406f50677
:103d5000f106f702d8000607c2017401f506d6067f
:103d6000ea06f506f506f506f506f506f506f50686
:103d7000f5068101b1015306002b90d140f6a470e5
:103d8000119a136035b0bde8f08f0023c6e9023305
:103d900001235d46074680460446ddf80090f36146
:103da000336102900490019bab4240f2cc8015f845
:103db000013ba3401f4308348de0039b5d46002b6d
:103dc0000cbf6ff0030a4ff0010addf800900123e9
:103dd000746003fa04f4049b013cc6e90838029bb2
:103de0002740b362069bb763f363009ba5eb0b050b
:103df000a9eb0309334cbaf1000f23681d44089b5b
:103e000025604b440893099ba3eb0903099302dd4a
:103e1000002b7ff446af119b089a1a60baf1000f8d
:103e200040f07786264d286818b1fff783fac5f869
:103e300000a000202060a5e701988345bdd2cb5c9f
:103e40000bf10105b360019bab4227d915f8011bab
:103e5000d6f808e01c4b01eb0e205843dff86cc08d
:103e6000f160604528d88b0626d40ef00f08b8f113
:103e7000080118bf01214ff001084fea1e13083353
:103e800008fa03f0b0f5004f03d832fa03f300d07c
:103e9000f1b124233360ddf8009051e0039b002b47
:103ea00014bf4ff0010a6ff0030a0223ddf80090ff
:103eb000336051e05d46c6e70121dce75d46e8e797
:103ec0007446012070460120df7befbd841042085c
:103ed0008846ddf80090022c7ff665af07f00703f7
:103ee00073615b08ff08033cb361002b40f00d8158
:103ef00004f007039c4248d34ff0000804f0070386
:103f0000df4024f00704002c69d0072c52d942f678
:103f1000201206eb08039f54083c3f0a08f10108f1
:103f2000b8f1030fefd906f50053b3f82089b3f8c1
:103f30002239db439bb2984500f08280272333600f
:103f40004ff0ff3a8ae0039b002b14bf4ff0010aa9
:103f50006ff0030a03233360baf1010f3ff437af68
:103f60001af1040f3ff433af78e05d46ddf80090be
:103f700019e7039b002b14bf4ff0010a6ff0030aef
:103f80000523e8e75d46ddf80090019bab42f0d9e0
:103f900015f8013ba3401f430834a9e7039b002bfe
:103fa00014bf4ff0010a6ff0030a0623d3e75d4602
:103fb000ddf80090019bab42f0d915f8013ba3401e
:103fc0001f430834a1e7039b002b14bf4ff0010ae5
:103fd0006ff0030a0723bee75d46ddf80090019b02
:103fe000ab42f0d942f6201215f8011b06eb08038c
:103ff000995493e75d46ddf800909fe7039b002b03
:1040000014bf4ff0010a6ff0030a3323a3e75d46a4
:10401000ddf80090019bab42f0d915f8013ba340bd
:104020001f430834072cf5d9fbb204933f0a083c20
:10403000059b4b450ed9049b08f1ff3809f8013b5d
:10404000b8f1000f3fd0002cecd1059b4b4522d896
:10405000092300e034234ff0020a3360ab45bff47c
:10406000b6ae072c7ff6b3ae013d083cf6e75d46e1
:10407000ddf80090dce75d46ddf80090e5e7039ba6
:10408000002b14bf4ff0010a6ff0030a262362e7ea
:104090005d46ddf80090019bab42f0d9a3eb050a29
:1040a000059b2946a3eb0902924528bf9246c245cb
:1040b00028bfc246484652460af06bfcb8eb0a08d5
:1040c0005544d144c1d17369db077ff504af04f0d7
:1040d00007039c42c0f0c18404f0070327fa03f3ee
:1040e00024f00704ab4502d2002c40f0c084012725
:1040f000a740013f1f40002c00f0ce844ff4107108
:10410000b94bba4aba48fff797fd032b05d10a23ea
:1041100015e75d46ddf80090f9e7012b34d14ff447
:10412000907320220521c6e90b3206f55e600af085
:104130003efc082206f1400a06f1d0030af8012be2
:104140009a45fbd1092106f1d00306f5a07203f8c8
:10415000011b9342fbd1072106f5a07306f5ac7253
:1041600003f8011b9342fbd1082106f5ac7306f559
:10417000b07203f8011b9342fbd1b369002b0a9381
:104180006bda424690468be34ff00008994b13f8e8
:104190000830a3422fd8974b06eb880113f808206c
:1041a00001239340013b3b40a41ad740924a52f866
:1041b000282008f101081344b8f1020fcb62e5d9b9
:1041c0004ff49072002106f5dc500af0f0fb4ff03e
:1041d0000008736b434530d813237363cde7039b0b
:1041e000002b14bf4ff0010a6ff0030a0b23b2e655
:1041f0005d46ddf80090019bab42f0d915f8013b1c
:10420000a3401f437b4b083413f808309c42f2d381
:10421000c1e7039b002b14bf4ff0010a6ff0030aa4
:104220000e2398e65d46ddf80090019bab42f0d985
:1042300015f8013ba3401f430834022cf5d96f4bfe
:1042400007f0070213f80830033c334403f5dc534e
:104250001a70ff0808f10108bbe74022002113a8eb
:104260000af0a5fb4ff45a630a9a002103fb02faf5
:104270000af5b073f31818464ff400620d930af074
:1042800096fb0af5166000214ff4906230440af064
:104290008efb0af14003f31819460b930023b26911
:1042a0000e9206eb8202d26a93420f9219d3002338
:1042b00001221846cde923330df14c0e0df18c0c83
:1042c0005ef8221001320b445b00102a08444cf8bf
:1042d0002230f5d1b3f5803f7cd001287ad9232351
:1042e0002de611f8010b34aa02eb800050f8842c63
:1042f0000133013240f8842cd1e75d46ddf80090af
:10430000ede70b9b13f8011b8e460b9301b334ab07
:1043100003eb810353f844cc08460cf1010a43f83f
:1043200044ac00230cf0010a01384aea43034fea87
:104330005c0cf7d10a291fd84ff0010e079840ea0c
:10434000412c0ffa8cfc0efa01f1b3f5806f0dd3fe
:10435000079b013307930f9b07998b42d1d10e9b8b
:10436000022b40f09c804ff0000880e0ddf834e044
:104370002ef813c00b44e8e70a99c3f3090c8c44e8
:1043800006eb4c0cbcf9601119b91146acf8602170
:10439000023a5b0a5b0803f0010ca1eb0c0cbef1c6
:1043a0000b0f6fea0c0c07d10a9b9c44079b0cf582
:1043b000966c26f81c30cbe70a998c4406eb4c0c23
:1043c000bcf9601919b91146acf86029023a0ef12e
:1043d000ff3edfe7002307934ff4da630a994ff0bb
:1043e000ff3259430a91b6e76b1203083d1a0308de
:1043f000751203088b1203080c1d03087c1c0308ac
:104400000e2c1ad8019b5b1b012b6fdcc7f3090331
:1044100003f5656336f91330002b44db5b1201d0e2
:10442000a3420ad9019bab4253d915f8013ba340e3
:1044300008340e2c47ea0307e8d9c7f3090303f54c
:10444000656336f91330002b5bdb5a12c3f30803a4
:104450000f2b049327fa02f7a4eb020461dc42f667
:104460002413049906eb0802d15408f10108d6e997
:104470000ba3079353444345c2d840f0a08006f5f0
:1044800024512431524606f140000a910af081fa83
:104490000a99079a514406f55e600af07afab36900
:1044a000013bb36169e60a2cbcd90a2141f25020d4
:1044b0000a46db4327fa02fc0cf0010c6344034478
:1044c00036f913300131002bb7da02329442efd2c1
:1044d000a8e7039b002b14bf4ff0010a6ff0030afb
:1044e000102338e55d46ddf800909be76b7804f11a
:1044f0000802934015f8022ba24013431f431034c7
:104500009be70a2241f25021db4327fa02f000f038
:10451000010003440b4436f913300132002bf3db66
:1045200096e7102b08d1b8f1000f05d1112306e54d
:104530005d46ddf80090f9e7574a134413f8103c44
:1045400002939c422ed30122029b04999a40013a85
:104550003a40e41adf40514b10290b4413f810acd9
:104560000b46924408bf42f6231206f5245008bfba
:1045700006eb080300f1240008bf995c404418bf13
:10458000002152460af013fad04470e7039b002b37
:1045900014bf4ff0010a6ff0030a1223dbe45d46fb
:1045a000ddf80090019bab42f0d915f8013ba34028
:1045b0001f430834029bc4e75d46ddf800901523d5
:1045c000bde40e2c18d8012b00f37881c7f3090342
:1045d000b03336f91330002b27db5b1201d0a34236
:1045e0000ad9019bab4234d915f8013ba3400834ea
:1045f0000e2c47ea0307e9d9c7f30903b03336f9ac
:104600001380b8f1000f31db4fea6822c8f30808c5
:10461000b8f1ff0f27fa02f7a4eb020475dc059b43
:104620004b4533d909f8018babe50a2cd9d90a21be
:104630000a4627fa02f000f00100c31a03f2af4362
:1046400036f913300131002bd6da02329442efd220
:10465000c7e7039b002b14bf4ff0010a6ff0030a5a
:10466000172378e45d46ddf80090bae70a2227fabe
:1046700002f303f00103a3eb080808f2af4836f990
:1046800018800132b8f1000ff1dbc1e71823e2e432
:104690005d46ddf80090c2e78f120308931203080d
:1046a0000e2c9ebf35f8023ba3401f43c7f30903fe
:1046b00003f1b00336f9132098bf1034002ac0f27a
:1046c000cf805112d005904627fa01f7a4eb0104e0
:1046d0001bd40e2c9ebf35f8023ba3401f43c7f3eb
:1046e000090303f1b00336f9130098bf1034002812
:1046f000c0f2c4804112cf40641ac10589f800207d
:1047000040f1ca80804609f10109c8f30808b8f5ec
:10471000807f3ff4d8ac6ff48072c34b904453f861
:1047200028300293c14b53f82880029b53b1a34217
:1047300000f2dc800123029a9340013b3b40a41a23
:10474000d74098440e2c1dd8019b5b1b012b00f316
:10475000fd80c7f3090303f5f06336f91330002b2e
:10476000c0f2d0805b1201d0a3420bd9019bab42b7
:1047700040f2de8015f8013ba34008340e2c47ead6
:104780000307e6d9c7f3090303f5f06336f91310fd
:104790000029c0f2e6804a12c1f30801a44bd740b9
:1047a00053f82130a41a0293a24b53f821300493fa
:1047b000029b63b19c42c0f0ef800123029a9340b8
:1047c000013b3b40a41ad740049a1a4404923e9bf2
:1047d000049aa9eb030306939b1a0c9a05991340bc
:1047e0003e9a134499452cbf08eb090208eb0302db
:1047f0009142c0f0f080b8f1080f40f21e81049a97
:104800004245c0f01a81194628f0070203eb020c5a
:1048100009f10800d1f800e0083140f808ec51f83f
:1048200004ec8c4540f804ec00f10800f2d8591c67
:104830008c4538bf08229144134408f00702022a2d
:1048400000f2fa80002a3ff49dac197818f0060fa8
:1048500089f8001002d05b7889f80130914491e426
:104860000a2127fa01f303f001039a1a02f2af4278
:1048700036f912200131002af3db23e70a2127fa57
:1048800001f303f001031b1a03f2af4336f91300df
:1048900001310028f3db2ee789f8010009f1020954
:1048a000019b5b1b032b7ff78cae059ba3eb0903de
:1048b000012b3ff7f5ae0e2c3ff69eae6b7804f160
:1048c0000802934015f8022ba24013431f431034f3
:1048d00092e6039b002b14bf4ff0010a6ff0030a0e
:1048e0001923fff738bb5d46ddf80090019bab4212
:1048f000efd915f8013ba3401f43029b08349c42ab
:10490000f4d317e70a2c7ff631af0a210a4627fabb
:1049100002f000f00100c31a03f67f3336f91330ba
:104920000131002bbff62eaf02329442eed21de7ca
:10493000039b002b14bf4ff0010a6ff0030a1a23e8
:10494000fff709bb5d46ddf800900fe76b7804f1d7
:104950000802934015f8022ba24013431f43103462
:1049600010e70a2227fa02f303f001035b1a03f6a9
:104970007f3336f9131001320029f3db0ee7039b76
:10498000002b14bf4ff0010a6ff0030a1b23fff73f
:10499000e2ba5d46ddf80090019bab42efd915f815
:1049a000013ba3401f430834029b03e73523fff775
:1049b00052bb5d46ddf80090059b4b45f6d9069b42
:1049c000049a9b1a0c9a13403e9ad35c09f8013b57
:1049d000069b013306934ff0ff32b8f1000f3ff40e
:1049e000d1ab9044e8e713f8030c033a01f8030c49
:1049f00013f8020c01f8020c13f8010c01f8010c79
:104a0000022a8946184601f1030103f10303ead89b
:104a1000002a3ff4b7ab0378022a89f800307ff40c
:104a20001daf437818e700bf901c0308001c030863
:104a3000801b0308001b0308904649464246dfe7f7
:104a4000039b002b14bf4ff0010a6ff0030a2023d1
:104a5000fff781ba5d46ddf80090019bab42efd9cc
:104a600015f8013ba3401f430834fff730bb013d5d
:104a7000083cfff737bba4b3072c1ed9fbb2083c98
:104a80003f0a326908f1010843ea0223b8f1030f33
:104a90003361f0d9ddf8009022234ff0000a336033
:104aa000fff7dcba039b002b14bf4ff0010a6ff035
:104ab000030a2923fff7fab95d46019bab42f1d9fe
:104ac00015f8013ba3401f430834d5e7039b002b97
:104ad00014bf4ff0010a6ff0030a2a23fff7e6b96b
:104ae0005d46019bab42f1d915f8013bc9e75d4634
:104af000ddf80090d0e75d46ddf80090fff720bac2
:104b00004ff000094d466ff0020afff773b9a9464e
:104b1000f9e70020fff736b95d46fff7bcb900bfe3
:104b200010b50c4619b90a20024afef7efff002023
:104b3000606010bd490202082de9f04f1d46144681
:104b40004ff00009136891b05a191a9e636888469d
:104b500038495b1bcde90412324604a90693074687
:104b6000cdf81c9009f04cfddde906239a4212d2e3
:104b700020219b1a0193304b0deb01023220cde92d
:104b8000081900932d494b46fef7defa49460a20e4
:104b90002b4afef7bbff079b2a4a1d4463682a493c
:104ba0009d4298bfa560294d16f0010908bf2a460d
:104bb00016f0020a08bf294616f0040f24484ff0e9
:104bc000200b08bf284600230192224acde902109b
:104bd00000921e2019490deb0b02cde908b3fef738
:104be000b3fad8f800202146404652689047002387
:104bf000054670b1184a0190009232200f490deb22
:104c00000b02cde908b3fef79ffa284611b0bde8c4
:104c1000f08f3b6c002bf8d0e368baf1000f02d0a4
:104c20009ab2c7f87426b9f1000feed09bb2c7f85c
:104c30007836eae75c1903089b120308eb110308b6
:104c400049020208971203081a1d0308861d03086b
:104c500099120308c3120308e512030800000000bc
:104c60002de9f04f0446c36eddb005919847d4f8a6
:104c7000a0360646002b51d0d4f8ac36d4f87c26aa
:104c80009b1ad4f8a82603449342c4f8ac3645d303
:104c900000274ff0ff33b846c4f8a836d4f89c1666
:104ca000d4f8ac2601eb0715eb6838019a426ed3b5
:104cb0000b5a281dadf870306b681d93ab681e93be
:104cc000eb68c5f804801f9309f0d8fdd4f89c3632
:104cd000d4f8a02605f1100103eb02122846fdf7d7
:104ce00002fdd4f8a0361da8013bc4f8a0361d9bd8
:104cf000cdf8748014931e9b159309f0bffd14a882
:104d00006ff09f0109f0edfb14a809f0b7fdd4f88e
:104d1000a036bb42c2dc0023c4f8ac360aa8c4f8f3
:104d20007c6609f0a2fd1023059a0aa91370606839
:104d300003681b6898470546002841f09d80ddf810
:104d40003080b8f1000f01f04b80e36e98470c9a69
:104d5000ddf82880032aa06084f8885640f2168186
:104d600098f80060404606f00f0305339a4288bf6a
:104d700018f80350fbf770fa032812d8431e022bd1
:104d800000f2fc80dfe813f0af00b700ea009b1ae6
:104d9000eb60d4f8a8260137934238bfc4f8a83690
:104da000b5e7452814bf0f200c200025059b8df882
:104db0002750187098f8009009f00f06082e20d898
:104dc000771b18bf012708f104013a460df12700af
:104dd00009f0dffd0df127032946c7f10102d819bb
:104de00009f0e5fd19f00e0f0cd02023cde91c359c
:104df0008a4b322000938a492b4601961caafef763
:104e0000a3f92e4698f8000009f03cfdb8f802a07e
:104e1000831edbb29afa9afa012b81461ffa8af5b1
:104e200001f240804046fbf717fa4ff0200b0023b9
:104e30007c4acde9019000920746794901201caadd
:104e4000cde91cb3fef780f9b9f1030f4ff0000371
:104e500009d1754a0120009271491caacde91cb301
:104e6000a027fef771f94ff020090023adf83ca010
:104e700007f01f02c7f3471acde902a26b4acde93a
:104e80001c9300920120664901951caa4ffa87f9ec
:104e9000fef75af9b9f1000f04f5d36bc0f2808028
:104ea00059461ca80faafdf754fc002314a91ca8fe
:104eb000149309f00bfb1ca809f0e0fc236c002bf9
:104ec00000f0f087d4f86806d4f86c2600eb820274
:104ed000824201f00d80014651f8043b9d4200f0f2
:104ee000d1870846f4e7642d3ff45faf762d14bff9
:104ef0000f20032059e7682d27d8622d09d8462da9
:104f000046d01dd8432d45d0452d0cbf08200f207d
:104f10004be7a5f16301052938d801a353f821f027
:104f2000594f02088d4f02083d4f0208ab4d020851
:104f30008d4f0208394f0208002036e7082034e779
:104f4000532d14bf0f2011202fe7732d24d0752d62
:104f500014bf0f20052028e7072026e7732d06d071
:104f6000752d1bd06b2d14bf0f2009201de798f85d
:104f70000830002b14bf0a200b2016e7304609f03a
:104f800081fc00280cbf0e200d200ee70f200ce73f
:104f900012200ae7132008e7042006e7062004e7aa
:104fa000baf1040f0fd0224f224bbaf1050f08bf00
:104fb0001f4659461ca80faafdf7cbfb39461ca873
:104fc00009f08ffa77e71c4ff3e7002f40f06a876c
:104fd0002023cde91c37194b1caa0120104900934e
:104fe0003b46fef7b1f8616e04f58660fbf7c7fb40
:104ff000814660683a46036804219b68984702210d
:105000003b464a460846d4f840c0e04760683a4606
:10501000036803219b68984700f044bf14130308fa
:10502000eb11030831130308521303088f1303080d
:1050300018fcffff94fbffffb4fbffffb81303084e
:105040000c9b082b10d998f80860072e0dd94ff04b
:1050500020080023b34a28200092b34901961caad5
:10506000cde91c83fef770f8032600272023cde945
:105070001c37ae4bac491caa1e20009301963b4640
:10508000fef762f81ca89df8279009f0eefb606817
:105090003a4603681ca9db6998478046002840f01f
:1050a000d2802a4620461ca9fbf788fb80460028b0
:1050b00040f0c9806068424603681ca9db699847d4
:1050c0008046002840f0bf8041221c9b1a70452278
:1050d0005a70ff229870d8705a7183f80490204655
:1050e0000623616800961caafff726fd8046aae009
:1050f0006eb92023cde91c368d4b322000938a49ae
:1051000033461caafef720f84ff01c089be0e36929
:10511000412200211ca806939df827a0666809f08b
:1051200046fcddf828b01ca89bf8079004f1cc07da
:1051300009f00f09b9f10d0f09bf9bf808904ff066
:10514000080809f10d094ff00908b9f1400f28bf0f
:105150004ff040090beb08014a46c14409f019fc25
:105160001bf8092009f1010302f00f020d2a06d1f4
:1051700099461bf803200d324ff0010818e00e2a63
:10518000fad109f102091bf803301bf8092042eaa1
:10519000032202f20d12b2f5587fedd940f26132ce
:1051a0000021384609f003fc4ff000084ff4587214
:1051b00009f101014ff0000959443846079209f0fe
:1051c000e8fb079a14a8224482f8cc9009f04dfb22
:1051d000336814aad3f820b00aa910233046d84760
:1051e000c84514bf4a4680226021149b304619707e
:1051f0005a7083f8029083f80390159b1795032b40
:1052000084bf04231693336814a95b6898478046cb
:10521000c8b911900c20fdf7cbff18b1c0e90067a9
:1052200080f808a0434b0f901293434b39461193db
:10523000069d00230faa1ca8a847119b1bb10fa90c
:1052400003220846984720210023059acde91c1324
:10525000127801200192394a334900921caafdf7c5
:1052600073ffb8f1000f00f0be8500f0cfbd002e37
:105270003ff43faf0a9b1ca893f807809df8279046
:10528000b8f10d0f09bf93f8088008f00f0808f176
:105290000d08092118bf0821b8f1400f28bf4ff0b1
:1052a00040081944424609f074fb1cab03eb0800ac
:1052b000c8f14102002109f07afbd4f8c88004f15a
:1052c000c807d8f84830f3b108201d4909f05ffb42
:1052d0000646002800f05986076080f804902a46a8
:1052e00038460aa9fbf76dfb804638b9d4f8c830b8
:1052f00032469b6c13491ca89847a4e70821304606
:1053000009f043fb9fe7d8f82c301ca89847824649
:10531000d0b9842300934a462b4638460aa9fbf7a6
:1053200064fbe3e621140308eb11030840140308af
:1053300069140308c1280208f5320208161603088a
:10534000a8a2050881360208d8f828301ca898477a
:10535000431e8346082b00f21886dfe813f00a008c
:10536000090016061c00160616061606160621006b
:1053700004262a4638460aa9fbf723fb8046002864
:105380007ff461af3346524649463846cdf800b007
:10539000fdf754feaae6504609f053fe0646e8e73c
:1053a0000826e6e700262023cde91c36bd4b1e204b
:1053b0000093bd4933461caa9df827b06568fdf7e8
:1053c000c3fe0a9fa4f8aa607b885bba9bb20693cf
:1053d0000c9b132b40f30281fb79ff2b40f0fe80e6
:1053e00094f8b8303e7a9bb194f8b920002a00f0c6
:1053f000f28046f001064ff0200e00230192ab4ae6
:105400001e200092a8491caacde91ce3fdf79cfed2
:10541000b7f8093007f10b005bbaa4f89c30fbf732
:1054200088fac4f8a000fb7b07f1100084f89e30d6
:10543000fbf77ffac4f8a400c4f89800d4f8b400cd
:1054400004f1940a03680122d3f800805146002336
:10545000c047002840f0ce805046b4f89c10fbf7bf
:105460005ffa4ff6fe7398428cbf4ff000094ff081
:1054700001090fa809f0f9f92b682846d3f8208014
:105480000faa10230aa9c0470f9bb9f1000f00f023
:10549000b48060221a7000225a709a70da70042365
:1054a000109a28469a4228bf1193069b0fa912937f
:1054b0002b685b689847804600287ff4c4aeb9f13a
:1054c000000f3ff4c0aed4f8b40042460368514622
:1054d000d3f800904346c847814600287ff4b3ae16
:1054e0002023b4f89c10cde91c305046fbf718fa85
:1054f000d4f8a0301caa01936d4bcde902100093a3
:1055000069494b461e20fdf71ffed4f8b40006f093
:10551000010603681b699847b4f89c30c4f89000f2
:10552000a4f8ae30012314a884f88c30a4f8ac9011
:1055300009f09bf92b684a46db6914a9284698476d
:10554000b4f8ae105046fbf7ebf9159a0730a2eb12
:10555000d00217445046c4f8b070fbf7e1f9c21d01
:10556000d20804d0711e3846c9b209f020fa2b685f
:1055700028465b69149f9847002814bf4123512394
:105580003b7044237b700023bb70fb70ff2387f8c4
:1055900004b07b71be71159b2846062b84bf072380
:1055a00016932b6814a95b689847804658b14ff052
:1055b000200c00233f4a322000923b491caacde92f
:1055c0001cc3fdf7c1fdd4f8b40003681b699847fc
:1055d000c4f8bc0037e606f0fe060ce7a4f89c60b1
:1055e000c4f8a06084f89e60c4f8a460c4f8986011
:1055f000002623e74ff000093be761221a70a3223f
:1056000083f802905a7083f8039083f804b005235e
:1056100046e79df82730d4f8b40006930368656820
:105620001b699847b4f8aa30c4f890000133a4f875
:10563000aa3014a809f019f92b6828461e6a14aa82
:1056400010230aa9b04794f88c60beb14ff000094e
:105650004b464e46ddf828b01bf807200beb070a37
:10566000ff2a32d0c3b1012b28d09af80020013391
:1056700002f00f0201321744ffb2ede72023cde91b
:105680001c360d4b28200093074933461caafdf712
:105690005bfd4ff00008d6e5781c5844fbf749f94c
:1056a0008146e2e7881403087f1403089d14030869
:1056b000b3140308e2140308fc140308baf8012029
:1056c0001e4652baa4f8ac20cfe766b32b6800227e
:1056d000db69284614a998479af80030ff2bd8d1e7
:1056e000b4f8ac10b4f8ae00d4f8a4300c9a01fbb6
:1056f0000033c4f898304ff6ff730137ffb2d21b66
:1057000092b29942a4f89c2026d100252023cde90d
:105710001c35b34b0191009328202b46b1491caa9c
:10572000fdf712fdb5e76021bbf80230149a5bbab1
:10573000117056709670d6709bb21793159b2846c1
:10574000032b84bf042316932b6814a95b68984726
:1057500080460028bad076e55eb14ff0010cd4f84f
:10576000b030c8081b5c01f007010cfa01f10b42d4
:105770008fd1d4f8b4005f4403683946db6898479a
:1057800048453bd1d4f8b4003a46036804f194018b
:10579000d3f804800023c04776bb2b6828465b699a
:1057a000149f9847002814bf412351233b70442382
:1057b0007b70069bbe703b710523fe70b4f8ac2075
:1057c000d4f8b060d00802f0070101228a40315cb1
:1057d0000a433254b4f8ac200132a4f8ac20002bb8
:1057e0003ff457af2846159a14a9934298bf1693d1
:1057f0002b685b68984779e40023dfe720270023c4
:10580000b4f8ac200190cde90292774a28200092aa
:1058100074491caacde91c73fdf796fc002e7ff499
:1058200038af2b6828465b69149f9847002814bf3f
:10583000412351233b7080237b70069bbe703b71dc
:10584000fe700523cee79df827304ff00008079340
:105850002023cde91c38b4f8aa301caf0193634b68
:105860003a466049012000934346666804f18c0a79
:10587000fdf76afc0fa808f0f8ff41465046fbf719
:105880005bf80a9b83465b8841465bba9bb21293e6
:105890004ff6ff73984214bf802244223846069286
:1058a000ff2209f084f8069b802b00f0e782d4f8f1
:1058b000b4000322036804f194019d683b46a847a5
:1058c000fe2138460af03cfe0546002800f0d6824c
:1058d0002023cde91438464b00f1070939f00f09b0
:1058e000404907f8008014aa4ff001000093434696
:1058f00008bf4ff01009fdf727fc384609f0a1fb5f
:105900003a46034637490120cdf80080fbf718fee0
:1059100002230120374a3349fbf700fe3368304643
:105920001f6a0faa4b460aa9b84761230f98037054
:10593000069b437000238370c370079b03710db9ee
:10594000052507e0ff232a4643711ca9063009f00c
:1059500020f80635109b3046ab4228bf11953368be
:105960000fa95b689847804600287ff46cac94f8d8
:105970008c30002b3ff467ac4ff6ff77bb453dd131
:10598000d4f8b40003681b699847d4f8bc302022cf
:10599000c01a4ff47a73b0fbf3f3b0f57a7fcde918
:1059a0001c282abfd4f8a0204246b2fbf3f2cde96e
:1059b0000132114b1caa00931e2000230949fdf758
:1059c000c3fb0023d4f8b40084f88c30c4f89030c2
:1059d000026804f1940195680122a84733e400bfee
:1059e0001d1503087f1403083515030876150308f1
:1059f0009b150308b0150308b31503080223b4f878
:105a0000aa5084f88c3028460af0f8fe96a3d3e911
:105a100000230af05dff0bf033fa02282cbf2d188b
:105a20000235282d28bf28251ca8a4f8aa8008f034
:105a30001cff33686a001ca9db69073230469847af
:105a4000336830465b69ddf870909847002814bfd2
:105a50004023502389f80030012389f80130b12315
:105a600089f80430632389f80530ff23414689f81b
:105a7000028089f8038089f8063009f10709504649
:105a8000faf75affb8420fd0a84509f102090bd026
:105a9000030a09f8010c09f8023ca4f8a800013037
:105aa00081b208f10108eae7b8f1000f25d01d9a8c
:105ab0004fea48030733934298bf1e93336830463a
:105ac0005b681ca99847061e18bfa8460023202023
:105ad000674acde91c03cde9018b0120654900929d
:105ae0001caafdf731fbd4f8b400b04603681b696b
